{
  "address": "0x421110406fF29DF42c9E2a6D483e48779B926Af4",
  "abi": [
    {
      "inputs": [
        {
          "internalType": "address",
          "name": "coordinator",
          "type": "address"
        }
      ],
      "stateMutability": "nonpayable",
      "type": "constructor"
    },
    {
      "inputs": [
        {
          "internalType": "address",
          "name": "have",
          "type": "address"
        },
        {
          "internalType": "address",
          "name": "want",
          "type": "address"
        }
      ],
      "name": "OnlyCoordinatorCanFulfill",
      "type": "error"
    },
    {
      "inputs": [
        {
          "internalType": "address",
          "name": "notOwner",
          "type": "address"
        }
      ],
      "name": "OnlyOwner",
      "type": "error"
    },
    {
      "inputs": [],
      "name": "COORDINATOR",
      "outputs": [
        {
          "internalType": "contract IRequestResponseCoordinator",
          "name": "",
          "type": "address"
        }
      ],
      "stateMutability": "view",
      "type": "function"
    },
    {
      "inputs": [
        {
          "internalType": "uint256",
          "name": "requestId",
          "type": "uint256"
        }
      ],
      "name": "cancelRequest",
      "outputs": [],
      "stateMutability": "nonpayable",
      "type": "function"
    },
    {
      "inputs": [
        {
          "internalType": "uint256",
          "name": "requestId",
          "type": "uint256"
        },
        {
          "internalType": "bool",
          "name": "response",
          "type": "bool"
        }
      ],
      "name": "rawFulfillDataRequest",
      "outputs": [],
      "stateMutability": "nonpayable",
      "type": "function"
    },
    {
      "inputs": [
        {
          "internalType": "uint64",
          "name": "accId",
          "type": "uint64"
        },
        {
          "internalType": "uint32",
          "name": "callbackGasLimit",
          "type": "uint32"
        },
        {
          "internalType": "uint8",
          "name": "numSubmission",
          "type": "uint8"
        },
        {
          "internalType": "string",
          "name": "adapterId",
          "type": "string"
        },
        {
          "internalType": "string",
          "name": "symbol",
          "type": "string"
        },
        {
          "internalType": "string",
          "name": "predictionType",
          "type": "string"
        }
      ],
      "name": "requestPredictPrice",
      "outputs": [
        {
          "internalType": "uint256",
          "name": "requestId",
          "type": "uint256"
        }
      ],
      "stateMutability": "nonpayable",
      "type": "function"
    },
    {
      "inputs": [
        {
          "internalType": "uint32",
          "name": "callbackGasLimit",
          "type": "uint32"
        },
        {
          "internalType": "uint8",
          "name": "numSubmission",
          "type": "uint8"
        },
        {
          "internalType": "string",
          "name": "adapterId",
          "type": "string"
        },
        {
          "internalType": "string",
          "name": "symbol",
          "type": "string"
        },
        {
          "internalType": "string",
          "name": "predictionType",
          "type": "string"
        }
      ],
      "name": "requestPredictPriceDirectPayment",
      "outputs": [
        {
          "internalType": "uint256",
          "name": "requestId",
          "type": "uint256"
        }
      ],
      "stateMutability": "payable",
      "type": "function"
    },
    {
      "inputs": [],
      "name": "sResponseBool",
      "outputs": [
        {
          "internalType": "bool",
          "name": "",
          "type": "bool"
        }
      ],
      "stateMutability": "view",
      "type": "function"
    },
    {
      "stateMutability": "payable",
      "type": "receive"
    }
  ],
  "transactionHash": "0x45515f4c9fcf0144e8c461240ca5404facd9f42f5e22d7cb2a3b404f278cc47c",
  "args": [
    "0xe012c95572096D74966A385b4609cbB5bC376F35"
  ],
  "numDeployments": 1,
  "solcInputHash": "f8b5bc511e740aa5df04842062dd8acb",
  "bytecode": "0x60a060405234801561001057600080fd5b5060405161142a38038061142a83398101604081905261002f916101c6565b6001600160a01b031660805260408051660ead2dce86264760cb1b602080830191909152825180830360070181526027830184528051908201206000908152808252838120805463ffffffff1990811663a185c35f179091556534b73a191a9b60d11b60478501528451808503602d018152604d8501865280519084012082528183528482208054821663d1bf555c17905563189bdbdb60e21b606d85015284518085036051018152607185018652805190840120825281835284822080548216637961841717905565737472696e6760d01b60918501528451808503607701815260978501865280519084012082528183528482208054821663f30be55117905566313cba32b9999960c91b60b78501528451808503609e01815260be8501865280519084012082528183528482208054821663bf8542a917905564627974657360d81b60de850152845180850360c301815260e3909401855283519383019390932081529081905291909120805490911663c6f3401317905560018054610100600160a81b03191661010033021790556101f6565b6000602082840312156101d857600080fd5b81516001600160a01b03811681146101ef57600080fd5b9392505050565b6080516111f76102336000396000818160a9015281816101d9015281816103ef0152818161062a015281816106b7015261079801526111f76000f3fe6080604052600436106100695760003560e01c80634ac35fac116100435780634ac35fac14610112578063630859491461013357806390d95efc1461015357600080fd5b80633015394c146100755780633b2bcbf11461009757806343ff5be1146100e857600080fd5b3661007057005b600080fd5b34801561008157600080fd5b50610095610090366004610c75565b610173565b005b3480156100a357600080fd5b506100cb7f000000000000000000000000000000000000000000000000000000000000000081565b6040516001600160a01b0390911681526020015b60405180910390f35b3480156100f457600080fd5b506001546101029060ff1681565b60405190151581526020016100df565b610125610120366004610d5b565b610240565b6040519081526020016100df565b34801561013f57600080fd5b5061012561014e366004610e05565b61047b565b34801561015f57600080fd5b5061009561016e366004610ec8565b6106b5565b60015461010090046001600160a01b031633146101aa57604051630543601560e11b81523360048201526024015b60405180910390fd5b6040517f3015394c000000000000000000000000000000000000000000000000000000008152600481018290527f00000000000000000000000000000000000000000000000000000000000000006001600160a01b031690633015394c90602401600060405180830381600087803b15801561022557600080fd5b505af1158015610239573d6000803e3d6000fd5b5050505050565b60015460009061010090046001600160a01b0316331461027557604051630543601560e11b81523360048201526024016101a1565b60405163189bdbdb60e21b602082015260009060240160405160208183030381529060405280519060200120905060006102ae82610741565b60408051808201909152601181527f696e666572656e63655f6164617074657200000000000000000000000000000060208201529091506102f1908290886107c6565b60408051808201909152600e81527f696e7075745f636f696e4e616d650000000000000000000000000000000000006020820152610331908290876107c6565b60408051808201909152601481527f696e7075745f70726564696374696f6e547970650000000000000000000000006020820152610371908290866107c6565b6103bf604051806040016040528060048152602001630e0c2e8d60e31b81525060405180604001604052806005815260200164697342757960d81b815250836107c69092919063ffffffff16565b6040517fa4dfe92f0000000000000000000000000000000000000000000000000000000081526001600160a01b037f0000000000000000000000000000000000000000000000000000000000000000169063a4dfe92f90349061042c9085908d908d903390600401610fb8565b60206040518083038185885af115801561044a573d6000803e3d6000fd5b50505050506040513d601f19601f8201168201806040525081019061046f9190610ff9565b98975050505050505050565b60015460009061010090046001600160a01b031633146104b057604051630543601560e11b81523360048201526024016101a1565b60405163189bdbdb60e21b602082015260009060240160405160208183030381529060405280519060200120905060006104e982610741565b60408051808201909152601181527f696e666572656e63655f61646170746572000000000000000000000000000000602082015290915061052c908290886107c6565b60408051808201909152600e81527f696e7075745f636f696e4e616d65000000000000000000000000000000000000602082015261056c908290876107c6565b60408051808201909152601481527f696e7075745f70726564696374696f6e5479706500000000000000000000000060208201526105ac908290866107c6565b6105fa604051806040016040528060048152602001630e0c2e8d60e31b81525060405180604001604052806005815260200164697342757960d81b815250836107c69092919063ffffffff16565b6040517f752f8c140000000000000000000000000000000000000000000000000000000081526001600160a01b037f0000000000000000000000000000000000000000000000000000000000000000169063752f8c14906106659084908c908e908d90600401611012565b6020604051808303816000875af1158015610684573d6000803e3d6000fd5b505050506040513d601f19601f820116820180604052508101906106a89190610ff9565b9998505050505050505050565b7f0000000000000000000000000000000000000000000000000000000000000000336001600160a01b03821614610729576040517f1cf993f40000000000000000000000000000000000000000000000000000000081523360048201526001600160a01b03821660248201526044016101a1565b6001805460ff1916831515179055505050565b505050565b61077f6040805160a0810182526000808252602080830182905282840182905260608084018390528451808601909552845283015290608082015290565b6000828152602081905260409020546107c090829084907f00000000000000000000000000000000000000000000000000000000000000009060e01b6107e4565b92915050565b60808301516107d5908361086f565b608083015161073c908261086f565b6108226040805160a0810182526000808252602080830182905282840182905260608084018390528451808601909552845283015290608082015290565b6108328560800151610100610886565b50509183526001600160a01b031660208301527fffffffff0000000000000000000000000000000000000000000000000000000016604082015290565b61087c82600383516108eb565b61073c8282610a00565b6040805180820190915260608152600060208201526108a6602083611054565b156108ce576108b6602083611054565b6108c190602061108c565b6108cb908361109f565b91505b506020828101829052604080518085526000815290920101905290565b60178167ffffffffffffffff1611610916576109108360e0600585901b168317610a2e565b50505050565b60ff8167ffffffffffffffff16116109545761093d836018611fe0600586901b1617610a2e565b506109108367ffffffffffffffff83166001610a53565b61ffff8167ffffffffffffffff16116109935761097c836019611fe0600586901b1617610a2e565b506109108367ffffffffffffffff83166002610a53565b63ffffffff8167ffffffffffffffff16116109d4576109bd83601a611fe0600586901b1617610a2e565b506109108367ffffffffffffffff83166004610a53565b6109e983601b611fe0600586901b1617610a2e565b506109108367ffffffffffffffff83166008610a53565b604080518082019091526060815260006020820152610a2783846000015151848551610a81565b9392505050565b604080518082019091526060815260006020820152610a278384600001515184610b6b565b604080518082019091526060815260006020820152610a79848560000151518585610bc6565b949350505050565b6040805180820190915260608152600060208201528251821115610aa457600080fd5b6020850151610ab3838661109f565b1115610ae657610ae685610ad687602001518786610ad1919061109f565b610c47565b610ae19060026110b2565b610c5e565b600080865180518760208301019350808887011115610b055787860182525b505050602084015b60208410610b455780518252610b2460208361109f565b9150610b3160208261109f565b9050610b3e60208561108c565b9350610b0d565b51815160001960208690036101000a019081169019919091161790525083949350505050565b60408051808201909152606081526000602082015283602001518310610ba057610ba08485602001516002610ae191906110b2565b8351805160208583010184815350808503610bbc576001810182525b5093949350505050565b6040805180820190915260608152600060208201526020850151610bea858461109f565b1115610bfe57610bfe85610ad6868561109f565b60006001610c0e846101006111b5565b610c18919061108c565b9050855183868201018583198251161781525080518487011115610c3c5783860181525b509495945050505050565b600081831115610c585750816107c0565b50919050565b8151610c6a8383610886565b506109108382610a00565b600060208284031215610c8757600080fd5b5035919050565b803563ffffffff81168114610ca257600080fd5b919050565b803560ff81168114610ca257600080fd5b634e487b7160e01b600052604160045260246000fd5b600082601f830112610cdf57600080fd5b813567ffffffffffffffff80821115610cfa57610cfa610cb8565b604051601f8301601f19908116603f01168101908282118183101715610d2257610d22610cb8565b81604052838152866020858801011115610d3b57600080fd5b836020870160208301376000602085830101528094505050505092915050565b600080600080600060a08688031215610d7357600080fd5b610d7c86610c8e565b9450610d8a60208701610ca7565b9350604086013567ffffffffffffffff80821115610da757600080fd5b610db389838a01610cce565b94506060880135915080821115610dc957600080fd5b610dd589838a01610cce565b93506080880135915080821115610deb57600080fd5b50610df888828901610cce565b9150509295509295909350565b60008060008060008060c08789031215610e1e57600080fd5b863567ffffffffffffffff8082168214610e3757600080fd5b819750610e4660208a01610c8e565b9650610e5460408a01610ca7565b95506060890135915080821115610e6a57600080fd5b610e768a838b01610cce565b94506080890135915080821115610e8c57600080fd5b610e988a838b01610cce565b935060a0890135915080821115610eae57600080fd5b50610ebb89828a01610cce565b9150509295509295509295565b60008060408385031215610edb57600080fd5b8235915060208301358015158114610ef257600080fd5b809150509250929050565b80518252600060206001600160a01b038184015116818501527fffffffff00000000000000000000000000000000000000000000000000000000604084015116604085015260608301516060850152608083015160a060808601528051604060a087015280518060e088015260005b81811015610f895782810185015188820161010001528401610f6c565b50610100915060008282890101528383015160c088015281601f19601f83011688010194505050505092915050565b608081526000610fcb6080830187610efd565b63ffffffff9590951660208301525060ff9290921660408301526001600160a01b0316606090910152919050565b60006020828403121561100b57600080fd5b5051919050565b6080815260006110256080830187610efd565b63ffffffff9590951660208301525067ffffffffffffffff92909216604083015260ff16606090910152919050565b60008261107157634e487b7160e01b600052601260045260246000fd5b500690565b634e487b7160e01b600052601160045260246000fd5b818103818111156107c0576107c0611076565b808201808211156107c0576107c0611076565b60008160001904831182151516156110cc576110cc611076565b500290565b600181815b8085111561110c5781600019048211156110f2576110f2611076565b808516156110ff57918102915b93841c93908002906110d6565b509250929050565b600082611123575060016107c0565b81611130575060006107c0565b816001811461114657600281146111505761116c565b60019150506107c0565b60ff84111561116157611161611076565b50506001821b6107c0565b5060208310610133831016604e8410600b841016171561118f575081810a6107c0565b61119983836110d1565b80600019048211156111ad576111ad611076565b029392505050565b6000610a27838361111456fea2646970667358221220c68bd0f8cd8e2255e501e598c4896e64e4edb16c4374203d4b17834141cded6d64736f6c63430008100033",
  "devdoc": {
    "kind": "dev",
    "methods": {},
    "version": 1
  },
  "userdoc": {
    "kind": "user",
    "methods": {},
    "version": 1
  },
  "storageLayout": {
    "storage": [
      {
        "astId": 16,
        "contract": "src/mocks/InferenceConsumerMock.sol:InferenceConsumerMock",
        "label": "sJobIdToFunctionSelector",
        "offset": 0,
        "slot": "0",
        "type": "t_mapping(t_bytes32,t_bytes4)"
      },
      {
        "astId": 1759,
        "contract": "src/mocks/InferenceConsumerMock.sol:InferenceConsumerMock",
        "label": "sResponseBool",
        "offset": 0,
        "slot": "1",
        "type": "t_bool"
      },
      {
        "astId": 1761,
        "contract": "src/mocks/InferenceConsumerMock.sol:InferenceConsumerMock",
        "label": "sOwner",
        "offset": 1,
        "slot": "1",
        "type": "t_address"
      }
    ],
    "types": {
      "t_address": {
        "encoding": "inplace",
        "label": "address",
        "numberOfBytes": "20"
      },
      "t_bool": {
        "encoding": "inplace",
        "label": "bool",
        "numberOfBytes": "1"
      },
      "t_bytes32": {
        "encoding": "inplace",
        "label": "bytes32",
        "numberOfBytes": "32"
      },
      "t_bytes4": {
        "encoding": "inplace",
        "label": "bytes4",
        "numberOfBytes": "4"
      },
      "t_mapping(t_bytes32,t_bytes4)": {
        "encoding": "mapping",
        "key": "t_bytes32",
        "label": "mapping(bytes32 => bytes4)",
        "numberOfBytes": "32",
        "value": "t_bytes4"
      }
    }
  }
}