{
  "address": "0xC31D23d20DA2E32fb94931c2Ef9F62D796D66123",
  "abi": [
    {
      "inputs": [
        {
          "internalType": "address",
          "name": "coordinator",
          "type": "address"
        }
      ],
      "stateMutability": "nonpayable",
      "type": "constructor"
    },
    {
      "inputs": [
        {
          "internalType": "address",
          "name": "have",
          "type": "address"
        },
        {
          "internalType": "address",
          "name": "want",
          "type": "address"
        }
      ],
      "name": "OnlyCoordinatorCanFulfill",
      "type": "error"
    },
    {
      "inputs": [
        {
          "internalType": "address",
          "name": "notOwner",
          "type": "address"
        }
      ],
      "name": "OnlyOwner",
      "type": "error"
    },
    {
      "inputs": [],
      "name": "COORDINATOR",
      "outputs": [
        {
          "internalType": "contract IRequestResponseCoordinator",
          "name": "",
          "type": "address"
        }
      ],
      "stateMutability": "view",
      "type": "function"
    },
    {
      "inputs": [
        {
          "internalType": "uint256",
          "name": "requestId",
          "type": "uint256"
        }
      ],
      "name": "cancelRequest",
      "outputs": [],
      "stateMutability": "nonpayable",
      "type": "function"
    },
    {
      "inputs": [
        {
          "internalType": "uint256",
          "name": "requestId",
          "type": "uint256"
        },
        {
          "internalType": "bytes",
          "name": "response",
          "type": "bytes"
        }
      ],
      "name": "rawFulfillDataRequest",
      "outputs": [],
      "stateMutability": "nonpayable",
      "type": "function"
    },
    {
      "inputs": [
        {
          "internalType": "uint256",
          "name": "requestId",
          "type": "uint256"
        },
        {
          "internalType": "uint128",
          "name": "response",
          "type": "uint128"
        }
      ],
      "name": "rawFulfillDataRequest",
      "outputs": [],
      "stateMutability": "nonpayable",
      "type": "function"
    },
    {
      "inputs": [
        {
          "internalType": "uint256",
          "name": "requestId",
          "type": "uint256"
        },
        {
          "internalType": "int256",
          "name": "response",
          "type": "int256"
        }
      ],
      "name": "rawFulfillDataRequest",
      "outputs": [],
      "stateMutability": "nonpayable",
      "type": "function"
    },
    {
      "inputs": [
        {
          "internalType": "uint256",
          "name": "requestId",
          "type": "uint256"
        },
        {
          "internalType": "string",
          "name": "response",
          "type": "string"
        }
      ],
      "name": "rawFulfillDataRequest",
      "outputs": [],
      "stateMutability": "nonpayable",
      "type": "function"
    },
    {
      "inputs": [
        {
          "internalType": "uint256",
          "name": "requestId",
          "type": "uint256"
        },
        {
          "internalType": "bool",
          "name": "response",
          "type": "bool"
        }
      ],
      "name": "rawFulfillDataRequest",
      "outputs": [],
      "stateMutability": "nonpayable",
      "type": "function"
    },
    {
      "inputs": [
        {
          "internalType": "uint256",
          "name": "requestId",
          "type": "uint256"
        },
        {
          "internalType": "bytes32",
          "name": "response",
          "type": "bytes32"
        }
      ],
      "name": "rawFulfillDataRequest",
      "outputs": [],
      "stateMutability": "nonpayable",
      "type": "function"
    },
    {
      "inputs": [
        {
          "internalType": "uint64",
          "name": "accId",
          "type": "uint64"
        },
        {
          "internalType": "uint32",
          "name": "callbackGasLimit",
          "type": "uint32"
        },
        {
          "internalType": "uint8",
          "name": "numSubmission",
          "type": "uint8"
        }
      ],
      "name": "requestDataBool",
      "outputs": [
        {
          "internalType": "uint256",
          "name": "requestId",
          "type": "uint256"
        }
      ],
      "stateMutability": "nonpayable",
      "type": "function"
    },
    {
      "inputs": [
        {
          "internalType": "uint64",
          "name": "accId",
          "type": "uint64"
        },
        {
          "internalType": "uint32",
          "name": "callbackGasLimit",
          "type": "uint32"
        },
        {
          "internalType": "uint8",
          "name": "numSubmission",
          "type": "uint8"
        }
      ],
      "name": "requestDataBytes",
      "outputs": [
        {
          "internalType": "uint256",
          "name": "requestId",
          "type": "uint256"
        }
      ],
      "stateMutability": "nonpayable",
      "type": "function"
    },
    {
      "inputs": [
        {
          "internalType": "uint64",
          "name": "accId",
          "type": "uint64"
        },
        {
          "internalType": "uint32",
          "name": "callbackGasLimit",
          "type": "uint32"
        },
        {
          "internalType": "uint8",
          "name": "numSubmission",
          "type": "uint8"
        }
      ],
      "name": "requestDataBytes32",
      "outputs": [
        {
          "internalType": "uint256",
          "name": "requestId",
          "type": "uint256"
        }
      ],
      "stateMutability": "nonpayable",
      "type": "function"
    },
    {
      "inputs": [
        {
          "internalType": "uint32",
          "name": "callbackGasLimit",
          "type": "uint32"
        },
        {
          "internalType": "uint8",
          "name": "numSubmission",
          "type": "uint8"
        },
        {
          "internalType": "address",
          "name": "refundRecipient",
          "type": "address"
        }
      ],
      "name": "requestDataDirectPaymentBool",
      "outputs": [
        {
          "internalType": "uint256",
          "name": "requestId",
          "type": "uint256"
        }
      ],
      "stateMutability": "payable",
      "type": "function"
    },
    {
      "inputs": [
        {
          "internalType": "uint32",
          "name": "callbackGasLimit",
          "type": "uint32"
        },
        {
          "internalType": "uint8",
          "name": "numSubmission",
          "type": "uint8"
        },
        {
          "internalType": "address",
          "name": "refundRecipient",
          "type": "address"
        }
      ],
      "name": "requestDataDirectPaymentBytes",
      "outputs": [
        {
          "internalType": "uint256",
          "name": "requestId",
          "type": "uint256"
        }
      ],
      "stateMutability": "payable",
      "type": "function"
    },
    {
      "inputs": [
        {
          "internalType": "uint32",
          "name": "callbackGasLimit",
          "type": "uint32"
        },
        {
          "internalType": "uint8",
          "name": "numSubmission",
          "type": "uint8"
        },
        {
          "internalType": "address",
          "name": "refundRecipient",
          "type": "address"
        }
      ],
      "name": "requestDataDirectPaymentBytes32",
      "outputs": [
        {
          "internalType": "uint256",
          "name": "requestId",
          "type": "uint256"
        }
      ],
      "stateMutability": "payable",
      "type": "function"
    },
    {
      "inputs": [
        {
          "internalType": "uint32",
          "name": "callbackGasLimit",
          "type": "uint32"
        },
        {
          "internalType": "uint8",
          "name": "numSubmission",
          "type": "uint8"
        },
        {
          "internalType": "address",
          "name": "refundRecipient",
          "type": "address"
        }
      ],
      "name": "requestDataDirectPaymentInt256",
      "outputs": [
        {
          "internalType": "uint256",
          "name": "requestId",
          "type": "uint256"
        }
      ],
      "stateMutability": "payable",
      "type": "function"
    },
    {
      "inputs": [
        {
          "internalType": "uint32",
          "name": "callbackGasLimit",
          "type": "uint32"
        },
        {
          "internalType": "uint8",
          "name": "numSubmission",
          "type": "uint8"
        },
        {
          "internalType": "address",
          "name": "refundRecipient",
          "type": "address"
        }
      ],
      "name": "requestDataDirectPaymentString",
      "outputs": [
        {
          "internalType": "uint256",
          "name": "requestId",
          "type": "uint256"
        }
      ],
      "stateMutability": "payable",
      "type": "function"
    },
    {
      "inputs": [
        {
          "internalType": "uint32",
          "name": "callbackGasLimit",
          "type": "uint32"
        },
        {
          "internalType": "uint8",
          "name": "numSubmission",
          "type": "uint8"
        },
        {
          "internalType": "address",
          "name": "refundRecipient",
          "type": "address"
        }
      ],
      "name": "requestDataDirectPaymentUint128",
      "outputs": [
        {
          "internalType": "uint256",
          "name": "requestId",
          "type": "uint256"
        }
      ],
      "stateMutability": "payable",
      "type": "function"
    },
    {
      "inputs": [
        {
          "internalType": "uint64",
          "name": "accId",
          "type": "uint64"
        },
        {
          "internalType": "uint32",
          "name": "callbackGasLimit",
          "type": "uint32"
        },
        {
          "internalType": "uint8",
          "name": "numSubmission",
          "type": "uint8"
        }
      ],
      "name": "requestDataInt256",
      "outputs": [
        {
          "internalType": "uint256",
          "name": "requestId",
          "type": "uint256"
        }
      ],
      "stateMutability": "nonpayable",
      "type": "function"
    },
    {
      "inputs": [
        {
          "internalType": "uint64",
          "name": "accId",
          "type": "uint64"
        },
        {
          "internalType": "uint32",
          "name": "callbackGasLimit",
          "type": "uint32"
        },
        {
          "internalType": "uint8",
          "name": "numSubmission",
          "type": "uint8"
        }
      ],
      "name": "requestDataString",
      "outputs": [
        {
          "internalType": "uint256",
          "name": "requestId",
          "type": "uint256"
        }
      ],
      "stateMutability": "nonpayable",
      "type": "function"
    },
    {
      "inputs": [
        {
          "internalType": "uint64",
          "name": "accId",
          "type": "uint64"
        },
        {
          "internalType": "uint32",
          "name": "callbackGasLimit",
          "type": "uint32"
        },
        {
          "internalType": "uint8",
          "name": "numSubmission",
          "type": "uint8"
        }
      ],
      "name": "requestDataUint128",
      "outputs": [
        {
          "internalType": "uint256",
          "name": "requestId",
          "type": "uint256"
        }
      ],
      "stateMutability": "nonpayable",
      "type": "function"
    },
    {
      "inputs": [],
      "name": "sResponseBool",
      "outputs": [
        {
          "internalType": "bool",
          "name": "",
          "type": "bool"
        }
      ],
      "stateMutability": "view",
      "type": "function"
    },
    {
      "inputs": [],
      "name": "sResponseBytes",
      "outputs": [
        {
          "internalType": "bytes",
          "name": "",
          "type": "bytes"
        }
      ],
      "stateMutability": "view",
      "type": "function"
    },
    {
      "inputs": [],
      "name": "sResponseBytes32",
      "outputs": [
        {
          "internalType": "bytes32",
          "name": "",
          "type": "bytes32"
        }
      ],
      "stateMutability": "view",
      "type": "function"
    },
    {
      "inputs": [],
      "name": "sResponseInt256",
      "outputs": [
        {
          "internalType": "int256",
          "name": "",
          "type": "int256"
        }
      ],
      "stateMutability": "view",
      "type": "function"
    },
    {
      "inputs": [],
      "name": "sResponseString",
      "outputs": [
        {
          "internalType": "string",
          "name": "",
          "type": "string"
        }
      ],
      "stateMutability": "view",
      "type": "function"
    },
    {
      "inputs": [],
      "name": "sResponseUint128",
      "outputs": [
        {
          "internalType": "uint128",
          "name": "",
          "type": "uint128"
        }
      ],
      "stateMutability": "view",
      "type": "function"
    },
    {
      "stateMutability": "payable",
      "type": "receive"
    }
  ],
  "transactionHash": "0x61f43123f484c19d2a13a9819cdedeb42985d57273c03d928a6f5bf99c1b95e4",
  "args": [
    "0xe012c95572096D74966A385b4609cbB5bC376F35"
  ],
  "numDeployments": 1,
  "solcInputHash": "828fa1b778bad7ac1d584cb61e4cf690",
  "bytecode": "0x60a060405234801561001057600080fd5b50604051611f78380380611f7883398101604081905261002f916101c5565b6001600160a01b031660805260408051660ead2dce86264760cb1b6020808301919091528251808303600790810182526027840185528151918301919091206000908152808352848120805463ffffffff1990811663a185c35f179091556534b73a191a9b60d11b60478601528551808603602d018152604d8601875280519085012082528184528582208054821663d1bf555c17905563189bdbdb60e21b606d86015285518086036051018152607186018752805190850120825281845285822080548216637961841717905565737472696e6760d01b60918601528551808603607701815260978601875280519085012082528184528582208054821663f30be55117905566313cba32b9999960c91b60b78601528551808603609e01815260be8601875280519085012082528184528582208054821663bf8542a917905564627974657360d81b60de860152855180860360c301815260e39095018652845194840194909420815291829052929020805463c6f34013921691909117905580546001600160a01b031916331790556101f5565b6000602082840312156101d757600080fd5b81516001600160a01b03811681146101ee57600080fd5b9392505050565b608051611d22610256600039600081816102b60152818161068f0152818161098301528181610a0301528181610ac701528181610b8b01528181610d1d01528181610d7f01528181610eca0152818161102101526110d80152611d226000f3fe6080604052600436106101a55760003560e01c80635cdb7f7b116100e15780638d1550961161008a578063cdac274d11610064578063cdac274d1461046b578063ee61f30a1461047e578063efcb1e7914610491578063f40b4def146104db57600080fd5b80638d1550961461041857806390d95efc1461042b578063cd9a4e291461044b57600080fd5b80637b3d2ce9116100bb5780637b3d2ce9146103c257806386314c7a146103e257806387082111146103f857600080fd5b80635cdb7f7b1461036f5780636e2acda01461038257806379b15008146103a257600080fd5b80633015394c1161014e5780633b68dad0116101285780633b68dad0146102f057806343ff5be11461030557806345b9b6fb1461032f5780635215b9d81461034f57600080fd5b80633015394c1461026457806334ed9593146102845780633b2bcbf1146102a457600080fd5b806314f5c3831161017f57806314f5c3831461020c5780631569e5d61461022257806319e2cd2f1461024257600080fd5b806303f2d723146101b15780630598cf45146101d7578063144eb1e8146101ea57600080fd5b366101ac57005b600080fd5b6101c46101bf3660046115f7565b6104fb565b6040519081526020015b60405180910390f35b6101c46101e53660046115f7565b610719565b3480156101f657600080fd5b506101ff610766565b6040516101ce9190611690565b34801561021857600080fd5b506101c460025481565b34801561022e57600080fd5b506101c461023d3660046116a3565b6107f4565b34801561024e57600080fd5b5061026261025d366004611781565b610a01565b005b34801561027057600080fd5b5061026261027f3660046117dc565b610a6b565b34801561029057600080fd5b506101c461029f3660046116a3565b610b2e565b3480156102b057600080fd5b506102d87f000000000000000000000000000000000000000000000000000000000000000081565b6040516001600160a01b0390911681526020016101ce565b3480156102fc57600080fd5b506101ff610b7c565b34801561031157600080fd5b5060035461031f9060ff1681565b60405190151581526020016101ce565b34801561033b57600080fd5b5061026261034a3660046117f5565b610b89565b34801561035b57600080fd5b506101c461036a3660046116a3565b610c25565b6101c461037d3660046115f7565b610c70565b34801561038e57600080fd5b5061026261039d36600461183a565b610d1b565b3480156103ae57600080fd5b506102626103bd366004611781565b610d7d565b3480156103ce57600080fd5b506101c46103dd3660046116a3565b610de2565b3480156103ee57600080fd5b506101c460055481565b34801561040457600080fd5b506101c46104133660046116a3565b610e2e565b6101c46104263660046115f7565b610e7c565b34801561043757600080fd5b5061026261044636600461185c565b610ec8565b34801561045757600080fd5b506101c46104663660046116a3565b610f36565b6101c46104793660046115f7565b610f83565b6101c461048c3660046115f7565b610fd1565b34801561049d57600080fd5b506001546104ba906fffffffffffffffffffffffffffffffff1681565b6040516fffffffffffffffffffffffffffffffff90911681526020016101ce565b3480156104e757600080fd5b506102626104f636600461183a565b61101f565b6007546000906001600160a01b0316331461053057604051630543601560e11b81523360048201526024015b60405180910390fd5b60405165737472696e6760d01b60208201526000906026015b604051602081830303815290604052805190602001209050600061056c82611081565b90506105ae6040518060400160405280600381526020016219d95d60ea1b815250604051806080016040528060498152602001611ca460499139839190611106565b610614604051806040016040528060048152602001630e0c2e8d60e31b8152506040518060400160405280601181526020017f5241572c4254432c5553442c5052494345000000000000000000000000000000815250836111069092919063ffffffff16565b61065f604051806040016040528060058152602001640706f7731360dc1b815250604051806040016040528060018152602001600760fb1b815250836111069092919063ffffffff16565b6040517fa4dfe92f0000000000000000000000000000000000000000000000000000000081526001600160a01b037f0000000000000000000000000000000000000000000000000000000000000000169063a4dfe92f9034906106cc9085908b908b908b9060040161190e565b60206040518083038185885af11580156106ea573d6000803e3d6000fd5b50505050506040513d601f19601f8201168201806040525081019061070f919061194f565b9695505050505050565b6007546000906001600160a01b0316331461074957604051630543601560e11b8152336004820152602401610527565b6040516534b73a191a9b60d11b6020820152600090602601610549565b6006805461077390611968565b80601f016020809104026020016040519081016040528092919081815260200182805461079f90611968565b80156107ec5780601f106107c1576101008083540402835291602001916107ec565b820191906000526020600020905b8154815290600101906020018083116107cf57829003601f168201915b505050505081565b6007546000906001600160a01b0316331461082457604051630543601560e11b8152336004820152602401610527565b6040516534b73a191a9b60d11b60208201526000906026015b604051602081830303815290604052805190602001209050600061086082611081565b90506108a26040518060400160405280600381526020016219d95d60ea1b815250604051806080016040528060498152602001611ca460499139839190611106565b610908604051806040016040528060048152602001630e0c2e8d60e31b8152506040518060400160405280601181526020017f5241572c4254432c5553442c5052494345000000000000000000000000000000815250836111069092919063ffffffff16565b610953604051806040016040528060058152602001640706f7731360dc1b815250604051806040016040528060018152602001600760fb1b815250836111069092919063ffffffff16565b6040517f752f8c140000000000000000000000000000000000000000000000000000000081526001600160a01b037f0000000000000000000000000000000000000000000000000000000000000000169063752f8c14906109be90849089908b908a9060040161199c565b6020604051808303816000875af11580156109dd573d6000803e3d6000fd5b505050506040513d601f19601f8201168201806040525081019061070f919061194f565b7f0000000000000000000000000000000000000000000000000000000000000000336001600160a01b03821614610a5c5760405163073e64fd60e21b81523360048201526001600160a01b0382166024820152604401610527565b610a668383611124565b505050565b6007546001600160a01b03163314610a9857604051630543601560e11b8152336004820152602401610527565b6040517f3015394c000000000000000000000000000000000000000000000000000000008152600481018290527f00000000000000000000000000000000000000000000000000000000000000006001600160a01b031690633015394c90602401600060405180830381600087803b158015610b1357600080fd5b505af1158015610b27573d6000803e3d6000fd5b5050505050565b6007546000906001600160a01b03163314610b5e57604051630543601560e11b8152336004820152602401610527565b604051660ead2dce86264760cb1b602082015260009060270161083d565b6004805461077390611968565b7f0000000000000000000000000000000000000000000000000000000000000000336001600160a01b03821614610be45760405163073e64fd60e21b81523360048201526001600160a01b0382166024820152604401610527565b600180547fffffffffffffffffffffffffffffffff00000000000000000000000000000000166fffffffffffffffffffffffffffffffff8416179055505050565b6007546000906001600160a01b03163314610c5557604051630543601560e11b8152336004820152602401610527565b60405163189bdbdb60e21b602082015260009060240161083d565b6007546000906001600160a01b03163314610ca057604051630543601560e11b8152336004820152602401610527565b60405163189bdbdb60e21b60208201526000906024016040516020818303038152906040528051906020012090506000610cd982611081565b90506105ae6040518060400160405280600381526020016219d95d60ea1b8152506040518060800160405280604a8152602001611c5a604a9139839190611106565b7f0000000000000000000000000000000000000000000000000000000000000000336001600160a01b03821614610d765760405163073e64fd60e21b81523360048201526001600160a01b0382166024820152604401610527565b5060025550565b7f0000000000000000000000000000000000000000000000000000000000000000336001600160a01b03821614610dd85760405163073e64fd60e21b81523360048201526001600160a01b0382166024820152604401610527565b610a668383611130565b6007546000906001600160a01b03163314610e1257604051630543601560e11b8152336004820152602401610527565b60405164627974657360d81b602082015260009060250161083d565b6007546000906001600160a01b03163314610e5e57604051630543601560e11b8152336004820152602401610527565b60405166313cba32b9999960c91b602082015260009060270161083d565b6007546000906001600160a01b03163314610eac57604051630543601560e11b8152336004820152602401610527565b60405164627974657360d81b6020820152600090602501610549565b7f0000000000000000000000000000000000000000000000000000000000000000336001600160a01b03821614610f235760405163073e64fd60e21b81523360048201526001600160a01b0382166024820152604401610527565b6003805460ff1916831515179055505050565b6007546000906001600160a01b03163314610f6657604051630543601560e11b8152336004820152602401610527565b60405165737472696e6760d01b602082015260009060260161083d565b6007546000906001600160a01b03163314610fb357604051630543601560e11b8152336004820152602401610527565b60405166313cba32b9999960c91b6020820152600090602701610549565b6007546000906001600160a01b0316331461100157604051630543601560e11b8152336004820152602401610527565b604051660ead2dce86264760cb1b6020820152600090602701610549565b7f0000000000000000000000000000000000000000000000000000000000000000336001600160a01b0382161461107a5760405163073e64fd60e21b81523360048201526001600160a01b0382166024820152604401610527565b5060055550565b6110bf6040805160a0810182526000808252602080830182905282840182905260608084018390528451808601909552845283015290608082015290565b60008281526020819052604090205461110090829084907f00000000000000000000000000000000000000000000000000000000000000009060e01b61113c565b92915050565b608083015161111590836111c7565b6080830151610a6690826111c7565b6006610a668282611a2c565b6004610a668282611a2c565b61117a6040805160a0810182526000808252602080830182905282840182905260608084018390528451808601909552845283015290608082015290565b61118a85608001516101006111de565b50509183526001600160a01b031660208301527fffffffff0000000000000000000000000000000000000000000000000000000016604082015290565b6111d48260038351611243565b610a668282611358565b6040805180820190915260608152600060208201526111fe602083611aec565b156112265761120e602083611aec565b611219906020611b24565b6112239083611b37565b91505b506020828101829052604080518085526000815290920101905290565b60178167ffffffffffffffff161161126e576112688360e0600585901b168317611386565b50505050565b60ff8167ffffffffffffffff16116112ac57611295836018611fe0600586901b1617611386565b506112688367ffffffffffffffff831660016113ab565b61ffff8167ffffffffffffffff16116112eb576112d4836019611fe0600586901b1617611386565b506112688367ffffffffffffffff831660026113ab565b63ffffffff8167ffffffffffffffff161161132c5761131583601a611fe0600586901b1617611386565b506112688367ffffffffffffffff831660046113ab565b61134183601b611fe0600586901b1617611386565b506112688367ffffffffffffffff831660086113ab565b60408051808201909152606081526000602082015261137f838460000151518485516113d9565b9392505050565b60408051808201909152606081526000602082015261137f83846000015151846114c3565b6040805180820190915260608152600060208201526113d184856000015151858561151e565b949350505050565b60408051808201909152606081526000602082015282518211156113fc57600080fd5b602085015161140b8386611b37565b111561143e5761143e8561142e876020015187866114299190611b37565b61159f565b611439906002611b4a565b6115b6565b60008086518051876020830101935080888701111561145d5787860182525b505050602084015b6020841061149d578051825261147c602083611b37565b9150611489602082611b37565b9050611496602085611b24565b9350611465565b51815160001960208690036101000a019081169019919091161790525083949350505050565b604080518082019091526060815260006020820152836020015183106114f8576114f884856020015160026114399190611b4a565b8351805160208583010184815350808503611514576001810182525b5093949350505050565b60408051808201909152606081526000602082015260208501516115428584611b37565b1115611556576115568561142e8685611b37565b6000600161156684610100611c4d565b6115709190611b24565b90508551838682010185831982511617815250805184870111156115945783860181525b509495945050505050565b6000818311156115b0575081611100565b50919050565b81516115c283836111de565b506112688382611358565b803563ffffffff811681146115e157600080fd5b919050565b803560ff811681146115e157600080fd5b60008060006060848603121561160c57600080fd5b611615846115cd565b9250611623602085016115e6565b915060408401356001600160a01b038116811461163f57600080fd5b809150509250925092565b6000815180845260005b8181101561167057602081850181015186830182015201611654565b506000602082860101526020601f19601f83011685010191505092915050565b60208152600061137f602083018461164a565b6000806000606084860312156116b857600080fd5b833567ffffffffffffffff811681146116d057600080fd5b92506116de602085016115cd565b91506116ec604085016115e6565b90509250925092565b634e487b7160e01b600052604160045260246000fd5b600067ffffffffffffffff80841115611726576117266116f5565b604051601f8501601f19908116603f0116810190828211818310171561174e5761174e6116f5565b8160405280935085815286868601111561176757600080fd5b858560208301376000602087830101525050509392505050565b6000806040838503121561179457600080fd5b82359150602083013567ffffffffffffffff8111156117b257600080fd5b8301601f810185136117c357600080fd5b6117d28582356020840161170b565b9150509250929050565b6000602082840312156117ee57600080fd5b5035919050565b6000806040838503121561180857600080fd5b8235915060208301356fffffffffffffffffffffffffffffffff8116811461182f57600080fd5b809150509250929050565b6000806040838503121561184d57600080fd5b50508035926020909101359150565b6000806040838503121561186f57600080fd5b823591506020830135801515811461182f57600080fd5b805182526001600160a01b0360208201511660208301527fffffffff000000000000000000000000000000000000000000000000000000006040820151166040830152606081015160608301526000608082015160a060808501528051604060a08601526118f760e086018261164a565b9050602082015160c0860152809250505092915050565b6080815260006119216080830187611886565b63ffffffff9590951660208301525060ff9290921660408301526001600160a01b0316606090910152919050565b60006020828403121561196157600080fd5b5051919050565b600181811c9082168061197c57607f821691505b6020821081036115b057634e487b7160e01b600052602260045260246000fd5b6080815260006119af6080830187611886565b63ffffffff9590951660208301525067ffffffffffffffff92909216604083015260ff16606090910152919050565b601f821115610a6657600081815260208120601f850160051c81016020861015611a055750805b601f850160051c820191505b81811015611a2457828155600101611a11565b505050505050565b815167ffffffffffffffff811115611a4657611a466116f5565b611a5a81611a548454611968565b846119de565b602080601f831160018114611a8f5760008415611a775750858301515b600019600386901b1c1916600185901b178555611a24565b600085815260208120601f198616915b82811015611abe57888601518255948401946001909101908401611a9f565b5085821015611adc5787850151600019600388901b60f8161c191681555b5050505050600190811b01905550565b600082611b0957634e487b7160e01b600052601260045260246000fd5b500690565b634e487b7160e01b600052601160045260246000fd5b8181038181111561110057611100611b0e565b8082018082111561110057611100611b0e565b6000816000190483118215151615611b6457611b64611b0e565b500290565b600181815b80851115611ba4578160001904821115611b8a57611b8a611b0e565b80851615611b9757918102915b93841c9390800290611b6e565b509250929050565b600082611bbb57506001611100565b81611bc857506000611100565b8160018114611bde5760028114611be857611c04565b6001915050611100565b60ff841115611bf957611bf9611b0e565b50506001821b611100565b5060208310610133831016604e8410600b8410161715611c27575081810a611100565b611c318383611b69565b8060001904821115611c4557611c45611b0e565b029392505050565b600061137f8383611bac56fe68747470733a2f2f6d696e2d6170692e63727970746f636f6d706172652e636f6d2f646174612f70726963656d756c746966756c6c3f6673796d733d42544320267473796d733d55534468747470733a2f2f6d696e2d6170692e63727970746f636f6d706172652e636f6d2f646174612f70726963656d756c746966756c6c3f6673796d733d425443267473796d733d555344a26469706673582212203ebc21da5fe7f4c21337a336f60954074cf8da50d35d05ef759e1939c54e492f64736f6c63430008100033",
  "devdoc": {
    "kind": "dev",
    "methods": {},
    "version": 1
  },
  "userdoc": {
    "kind": "user",
    "methods": {},
    "version": 1
  },
  "storageLayout": {
    "storage": [
      {
        "astId": 6351,
        "contract": "src/mocks/RequestResponseConsumerMock.sol:RequestResponseConsumerMock",
        "label": "sJobIdToFunctionSelector",
        "offset": 0,
        "slot": "0",
        "type": "t_mapping(t_bytes32,t_bytes4)"
      },
      {
        "astId": 16029,
        "contract": "src/mocks/RequestResponseConsumerMock.sol:RequestResponseConsumerMock",
        "label": "sResponseUint128",
        "offset": 0,
        "slot": "1",
        "type": "t_uint128"
      },
      {
        "astId": 16031,
        "contract": "src/mocks/RequestResponseConsumerMock.sol:RequestResponseConsumerMock",
        "label": "sResponseInt256",
        "offset": 0,
        "slot": "2",
        "type": "t_int256"
      },
      {
        "astId": 16033,
        "contract": "src/mocks/RequestResponseConsumerMock.sol:RequestResponseConsumerMock",
        "label": "sResponseBool",
        "offset": 0,
        "slot": "3",
        "type": "t_bool"
      },
      {
        "astId": 16035,
        "contract": "src/mocks/RequestResponseConsumerMock.sol:RequestResponseConsumerMock",
        "label": "sResponseString",
        "offset": 0,
        "slot": "4",
        "type": "t_string_storage"
      },
      {
        "astId": 16037,
        "contract": "src/mocks/RequestResponseConsumerMock.sol:RequestResponseConsumerMock",
        "label": "sResponseBytes32",
        "offset": 0,
        "slot": "5",
        "type": "t_bytes32"
      },
      {
        "astId": 16039,
        "contract": "src/mocks/RequestResponseConsumerMock.sol:RequestResponseConsumerMock",
        "label": "sResponseBytes",
        "offset": 0,
        "slot": "6",
        "type": "t_bytes_storage"
      },
      {
        "astId": 16041,
        "contract": "src/mocks/RequestResponseConsumerMock.sol:RequestResponseConsumerMock",
        "label": "sOwner",
        "offset": 0,
        "slot": "7",
        "type": "t_address"
      }
    ],
    "types": {
      "t_address": {
        "encoding": "inplace",
        "label": "address",
        "numberOfBytes": "20"
      },
      "t_bool": {
        "encoding": "inplace",
        "label": "bool",
        "numberOfBytes": "1"
      },
      "t_bytes32": {
        "encoding": "inplace",
        "label": "bytes32",
        "numberOfBytes": "32"
      },
      "t_bytes4": {
        "encoding": "inplace",
        "label": "bytes4",
        "numberOfBytes": "4"
      },
      "t_bytes_storage": {
        "encoding": "bytes",
        "label": "bytes",
        "numberOfBytes": "32"
      },
      "t_int256": {
        "encoding": "inplace",
        "label": "int256",
        "numberOfBytes": "32"
      },
      "t_mapping(t_bytes32,t_bytes4)": {
        "encoding": "mapping",
        "key": "t_bytes32",
        "label": "mapping(bytes32 => bytes4)",
        "numberOfBytes": "32",
        "value": "t_bytes4"
      },
      "t_string_storage": {
        "encoding": "bytes",
        "label": "string",
        "numberOfBytes": "32"
      },
      "t_uint128": {
        "encoding": "inplace",
        "label": "uint128",
        "numberOfBytes": "16"
      }
    }
  }
}