{
  "address": "0xc3d2f40AE6830fB8e9f14Cb6AA8757ee11685970",
  "abi": [
    {
      "inputs": [
        {
          "internalType": "address",
          "name": "coordinator",
          "type": "address"
        }
      ],
      "stateMutability": "nonpayable",
      "type": "constructor"
    },
    {
      "inputs": [
        {
          "internalType": "address",
          "name": "have",
          "type": "address"
        },
        {
          "internalType": "address",
          "name": "want",
          "type": "address"
        }
      ],
      "name": "OnlyCoordinatorCanFulfill",
      "type": "error"
    },
    {
      "inputs": [
        {
          "internalType": "address",
          "name": "notOwner",
          "type": "address"
        }
      ],
      "name": "OnlyOwner",
      "type": "error"
    },
    {
      "inputs": [
        {
          "internalType": "uint256",
          "name": "requestId",
          "type": "uint256"
        }
      ],
      "name": "cancelRequest",
      "outputs": [],
      "stateMutability": "nonpayable",
      "type": "function"
    },
    {
      "inputs": [
        {
          "internalType": "uint256",
          "name": "requestId",
          "type": "uint256"
        },
        {
          "internalType": "uint256[]",
          "name": "randomWords",
          "type": "uint256[]"
        }
      ],
      "name": "rawFulfillRandomWords",
      "outputs": [],
      "stateMutability": "nonpayable",
      "type": "function"
    },
    {
      "inputs": [
        {
          "internalType": "bytes32",
          "name": "keyHash",
          "type": "bytes32"
        },
        {
          "internalType": "uint64",
          "name": "accId",
          "type": "uint64"
        },
        {
          "internalType": "uint32",
          "name": "callbackGasLimit",
          "type": "uint32"
        },
        {
          "internalType": "uint32",
          "name": "numWords",
          "type": "uint32"
        }
      ],
      "name": "requestRandomWords",
      "outputs": [
        {
          "internalType": "uint256",
          "name": "requestId",
          "type": "uint256"
        }
      ],
      "stateMutability": "nonpayable",
      "type": "function"
    },
    {
      "inputs": [
        {
          "internalType": "bytes32",
          "name": "keyHash",
          "type": "bytes32"
        },
        {
          "internalType": "uint32",
          "name": "callbackGasLimit",
          "type": "uint32"
        },
        {
          "internalType": "uint32",
          "name": "numWords",
          "type": "uint32"
        },
        {
          "internalType": "address",
          "name": "refundRecipient",
          "type": "address"
        }
      ],
      "name": "requestRandomWordsDirectPayment",
      "outputs": [
        {
          "internalType": "uint256",
          "name": "requestId",
          "type": "uint256"
        }
      ],
      "stateMutability": "payable",
      "type": "function"
    },
    {
      "inputs": [],
      "name": "sRandomWord",
      "outputs": [
        {
          "internalType": "uint256",
          "name": "",
          "type": "uint256"
        }
      ],
      "stateMutability": "view",
      "type": "function"
    },
    {
      "inputs": [
        {
          "internalType": "uint64",
          "name": "accId",
          "type": "uint64"
        }
      ],
      "name": "withdrawTemporary",
      "outputs": [],
      "stateMutability": "nonpayable",
      "type": "function"
    },
    {
      "stateMutability": "payable",
      "type": "receive"
    }
  ],
  "transactionHash": "0x444917f89aab34e5a75d2ea196f0b5f93ee8772595f3bcf4971269c9704f7ccf",
  "args": [
    "0x9A2699517c3F9955B64F848e683aaDF4AB7BD54B"
  ],
  "numDeployments": 1,
  "solcInputHash": "b019e9321e841d3c86966223e6d80e35",
  "bytecode": "0x60a060405234801561001057600080fd5b5060405161093138038061093183398101604081905261002f91610063565b6001600160a01b03166080819052600180546001600160a01b03199081163317909155600280549091169091179055610093565b60006020828403121561007557600080fd5b81516001600160a01b038116811461008c57600080fd5b9392505050565b60805161087c6100b56000396000818161028001526102db015261087c6000f3fe6080604052600436106100695760003560e01c80632f34077b116100435780632f34077b146100df5780633015394c146100ff578063ff27dd5e1461011f57600080fd5b80630e5ff996146100755780631964176c1461009d5780631fe543e3146100bf57600080fd5b3661007057005b600080fd5b34801561008157600080fd5b5061008b60005481565b60405190815260200160405180910390f35b3480156100a957600080fd5b506100bd6100b83660046105ce565b610132565b005b3480156100cb57600080fd5b506100bd6100da366004610606565b610275565b3480156100eb57600080fd5b5061008b6100fa3660046106e4565b610316565b34801561010b57600080fd5b506100bd61011a366004610731565b6103fb565b61008b61012d366004610762565b6104a2565b6001546001600160a01b0316331461016457604051630543601560e11b81523360048201526024015b60405180910390fd5b600254604080517fa690d7ae00000000000000000000000000000000000000000000000000000000815290516000926001600160a01b03169163a690d7ae916004808301926020929190829003018187875af11580156101c8573d6000803e3d6000fd5b505050506040513d601f19601f820116820180604052508101906101ec91906107b1565b6040517ff026330a00000000000000000000000000000000000000000000000000000000815267ffffffffffffffff841660048201523360248201529091506001600160a01b0382169063f026330a90604401600060405180830381600087803b15801561025957600080fd5b505af115801561026d573d6000803e3d6000fd5b505050505050565b336001600160a01b037f00000000000000000000000000000000000000000000000000000000000000001614610308576040517f1cf993f40000000000000000000000000000000000000000000000000000000081523360048201526001600160a01b037f000000000000000000000000000000000000000000000000000000000000000016602482015260440161015b565b6103128282610578565b5050565b6001546000906001600160a01b0316331461034657604051630543601560e11b815233600482015260240161015b565b6002546040517f2f34077b0000000000000000000000000000000000000000000000000000000081526004810187905267ffffffffffffffff8616602482015263ffffffff8086166044830152841660648201526001600160a01b0390911690632f34077b906084016020604051808303816000875af11580156103ce573d6000803e3d6000fd5b505050506040513d601f19601f820116820180604052508101906103f291906107ce565b95945050505050565b6001546001600160a01b0316331461042857604051630543601560e11b815233600482015260240161015b565b6002546040517f3015394c000000000000000000000000000000000000000000000000000000008152600481018390526001600160a01b0390911690633015394c90602401600060405180830381600087803b15801561048757600080fd5b505af115801561049b573d6000803e3d6000fd5b5050505050565b6001546000906001600160a01b031633146104d257604051630543601560e11b815233600482015260240161015b565b6002546040517f0f52ffc60000000000000000000000000000000000000000000000000000000081526004810187905263ffffffff8087166024830152851660448201526001600160a01b03848116606483015290911690630f52ffc690349060840160206040518083038185885af1158015610553573d6000803e3d6000fd5b50505050506040513d601f19601f820116820180604052508101906103f291906107ce565b60328160008151811061058d5761058d6107e7565b602002602001015161059f91906107fd565b6105aa90600161081f565b6000555050565b803567ffffffffffffffff811681146105c957600080fd5b919050565b6000602082840312156105e057600080fd5b6105e9826105b1565b9392505050565b634e487b7160e01b600052604160045260246000fd5b6000806040838503121561061957600080fd5b8235915060208084013567ffffffffffffffff8082111561063957600080fd5b818601915086601f83011261064d57600080fd5b81358181111561065f5761065f6105f0565b8060051b604051601f19603f83011681018181108582111715610684576106846105f0565b6040529182528482019250838101850191898311156106a257600080fd5b938501935b828510156106c0578435845293850193928501926106a7565b8096505050505050509250929050565b803563ffffffff811681146105c957600080fd5b600080600080608085870312156106fa57600080fd5b8435935061070a602086016105b1565b9250610718604086016106d0565b9150610726606086016106d0565b905092959194509250565b60006020828403121561074357600080fd5b5035919050565b6001600160a01b038116811461075f57600080fd5b50565b6000806000806080858703121561077857600080fd5b84359350610788602086016106d0565b9250610796604086016106d0565b915060608501356107a68161074a565b939692955090935050565b6000602082840312156107c357600080fd5b81516105e98161074a565b6000602082840312156107e057600080fd5b5051919050565b634e487b7160e01b600052603260045260246000fd5b60008261081a57634e487b7160e01b600052601260045260246000fd5b500690565b8082018082111561084057634e487b7160e01b600052601160045260246000fd5b9291505056fea2646970667358221220d5d2c25e7a3bb47335aa699f2b1425a3b6736e8e3fb7fcc2a7bdbcef3deb765864736f6c63430008100033",
  "devdoc": {
    "kind": "dev",
    "methods": {
      "rawFulfillRandomWords(uint256,uint256[])": {
        "params": {
          "randomWords": "the VRF output expanded to the requested number of words",
          "requestId": "The Id initially returned by requestRandomWords"
        }
      }
    },
    "version": 1
  },
  "userdoc": {
    "kind": "user",
    "methods": {
      "rawFulfillRandomWords(uint256,uint256[])": {
        "notice": "rawFulfillRandomWords is called by VRFCoordinator when itreceives a valid VRF proof. rawFulfillRandomWords then callsfulfillRandomWords, after validating the origin of the call"
      }
    },
    "version": 1
  },
  "storageLayout": {
    "storage": [
      {
        "astId": 17933,
        "contract": "src/mocks/VRFConsumerMock.sol:VRFConsumerMock",
        "label": "sRandomWord",
        "offset": 0,
        "slot": "0",
        "type": "t_uint256"
      },
      {
        "astId": 17935,
        "contract": "src/mocks/VRFConsumerMock.sol:VRFConsumerMock",
        "label": "sOwner",
        "offset": 0,
        "slot": "1",
        "type": "t_address"
      },
      {
        "astId": 17938,
        "contract": "src/mocks/VRFConsumerMock.sol:VRFConsumerMock",
        "label": "COORDINATOR",
        "offset": 0,
        "slot": "2",
        "type": "t_contract(IVRFCoordinator)12262"
      }
    ],
    "types": {
      "t_address": {
        "encoding": "inplace",
        "label": "address",
        "numberOfBytes": "20"
      },
      "t_contract(IVRFCoordinator)12262": {
        "encoding": "inplace",
        "label": "contract IVRFCoordinator",
        "numberOfBytes": "20"
      },
      "t_uint256": {
        "encoding": "inplace",
        "label": "uint256",
        "numberOfBytes": "32"
      }
    }
  }
}